S015000053657452656C654163746976652E73726563FF
S11300000C9446000C9463000C9463000C946300FD
S11300100C9463000C9463000C9463000C946300D0
S11300200C9463000C9463000C9463000C946300C0
S11300300C9463000C9463000C9463000C946300B0
S11300400C9463000C9463000C94F7020C9463000A
S11300500C94D2020C9463000C9463000C9463001F
S11300600C9463000C946300E000F2000401160198
S113007028013A014C015E01700182019401A6013C
S1130080B801CA01DC01EE010002120211241FBEF4
S1130090CFEFD4E0DEBFCDBF11E0A0E0B1E0E2E4F9
S11300A0F6E002C005900D92AA31B107D9F722E01B
S11300B0AAE1B1E001C01D92AE31B207E1F70E949E
S11300C028020C941F030C94000090911D0190339E
S11300D029F480931D0181E090E00895981306C0EF
S11300E080E380931D0181E090E00895981301C09E
S11300F0089580E090E0089580E8EEE9F1E0DF0102
S11301001D928A95E9F708951092C50087E68093B9
S1130110C40088ED8093C10086E08093C2000895F6
S113012090911A0180911C01981731F0E92FF0E0A9
S1130130E256FE4F808101C080E09F5F90931A01D8
S1130140992314F410921A01089590911B01E92F38
S1130150F0E0E25EFE4F80839F5F90931B01992342
S113016014F410921B0108951F93CF93DF93EC01B5
S113017010E007C0FE01E80FF91F80810E94A5006E
S11301801F5F812F90E0FE0101900020E9F7319775
S1130190EC1BFD0B8E179F0768F38091C00085FD53
S11301A01092C600DF91CF911F910895019782317B
S11301B0910508F049C18C5C9F4FFC010C94190314
S11301C04A9B08C08BB18B7F8BB980E091E00E9481
S11301D0B4003DC18BB184608BB98CE091E00E9486
S11301E0B40035C14B9B08C08BB1877F8BB980E0CD
S11301F091E00E94B4002BC18BB188608BB98CE074
S113020091E00E94B40023C14C9B08C08BB18F7E47
S11302108BB980E091E00E94B40019C18BB1806178
S11302208BB98CE091E00E94B40011C14D9B08C0D1
S11302308BB18F7D8BB980E091E00E94B40007C13F
S11302408BB180628BB98CE091E00E94B400FFC056
S11302504E9B08C08BB18F7B8BB980E091E00E94EC
S1130260B400F5C08BB180648BB98CE091E00E943E
S1130270B400EDC04F9B08C08BB18F778BB980E081
S113028091E00E94B400E3C08BB180688BB98CE02C
S113029091E00E94B400DBC0189B08C085B18E7F3A
S11302A085B980E091E00E94B400D1C085B181603D
S11302B085B98CE091E00E94B400C9C0199B08C0C4
S11302C085B18D7F85B980E091E00E94B400BFC004
S11302D085B1826085B98CE091E00E94B400B7C01A
S11302E01A9B08C085B18B7F85B98CE091E00E9490
S11302F0B400ADC085B1846085B980E091E00E940E
S1130300B400A5C01B9B08C085B1877F85B98CE06C
S113031091E00E94B4009BC085B1886085B980E0FB
S113032091E00E94B40093C01C9B08C085B18F7EED
S113033085B98CE091E00E94B40089C085B18061E8
S113034085B980E091E00E94B40081C0309B08C070
S113035088B18E7F88B98CE091E00E94B40077C0A8
S113036088B1816088B980E091E00E94B4006FC0D8
S1130370319B08C088B18D7F88B98CE091E00E94E0
S1130380B40065C088B1826088B980E091E00E94C1
S1130390B4005DC0329B08C088B18B7F88B98CE003
S11303A091E00E94B40053C088B1846088B980E0B1
S11303B091E00E94B4004BC0339B08C088B1877F92
S11303C088B98CE091E00E94B40041C088B1886093
S11303D088B980E091E00E94B40039C0349B08C021
S11303E088B18F7E88B98CE091E00E94B4002FC060
S11303F088B1806188B980E091E00E94B40027C090
S1130400359B08C088B18F7D88B98CE091E00E944B
S1130410B4001DC088B1806288B980E091E00E9478
S1130420B40015C0369B08C088B18F7B88B98CE0B6
S113043091E00E94B4000BC088B1806488B980E068
S113044091E00E94B40003C081E090E00895089513
S11304500E94840078948AB18C6F8AB984B18F61C8
S113046084B90E949000C82F0E9465000197C9F7C3
S1130470C13339F481E090E00E94D6000E947C00F0
S1130480F0CFC23339F482E090E00E94D6000E949B
S11304907C00E7CFC33339F483E090E00E94D600B8
S11304A00E947C00DECFC43339F484E090E00E94E3
S11304B0D6000E947C00D5CFC53339F485E090E0A6
S11304C00E94D6000E947C00CCCFC63339F486E06B
S11304D090E00E94D6000E947C00C3CFC73339F459
S11304E087E090E00E94D6000E947C00BACFC83317
S11304F039F488E090E00E94D6000E947C00B1CFDD
S1130500C93339F489E090E00E94D6000E947C004F
S1130510A8CFC13439F48AE090E00E94D6000E944A
S11305207C009FCFC23439F48BE090E00E94D60067
S11305300E947C0096CFC33439F48CE090E00E9492
S1130540D6000E947C008DCFC43439F48DE090E055
S11305500E94D6000E947C0084CFC53439F48EE01A
S113056090E00E94D6000E947C007BCFC63439F410
S11305708FE090E00E94D6000E947C0072CFC734C6
S113058039F480E190E00E94D6000E947C0069CF9B
S1130590C83409F066CF81E190E00E94D6000E9441
S11305A07C005FCF1F920F920FB60F9211248F938E
S11305B0EF93FF93E0911C0180911B01E81779F000
S11305C0F0E0E25EFE4F80818093C60080911C01C2
S11305D08F5F80931C01882314F410921C01FF91F7
S11305E0EF918F910F900FBE0F901F9018951F924F
S11305F00F920FB60F9211248F939F93EF93FF9353
S113060080911A01E82FF0E09091C600E256FE4F67
S113061090838F5F80931A01882314F410921A0137
S1130620FF91EF919F918F910F900FBE0F901F90AC
S11306301895EE0FFF1F0590F491E02D0994F8949E
S1050640FFCFE6
S11306420A0D52454C45204F4E0A0D000A0D5245E3
S10D06524C45204F46460A0D0000F7
S9030000FC
